:100000000C942D010C9455010C9455010C94550140
:100010000C9455010C9455010C9455010C94550108
:100020000C9455010C9455010C94470D0C94B90D8A
:100030000C9455010C9455010C9455010C945501E8
:100040000C9455010C9455010C9455010C945501D8
:100050000C94F1060C9455010C9455010C94C90CA8
:100060000C9455010C9455010C9455010C945501B8
:100070000C9455010C9455010C9455010C945501A8
:100080000C9455010C9455010C9455010C94550198
:100090000C9455010C9455010C9455010C94550188
:1000A0000C9455010C9455010C94550138043D04F1
:1000B00042044C045604A004A004A00460046A0492
:1000C00074047E048B04A00493047C117F116E11D0
:1000D00072117611A011A011A011831187118B113B
:1000E00091119511A0119B1107634236B79BD8A7B8
:1000F0001A39685618AEBAAB558C1D3CB7CC57634D
:10010000BD6DEDFD753EF6177231BF000000803FFA
:1001100008000000BE922449123EABAAAA2ABECD16
:10012000CCCC4C3E00000080BEABAAAAAA3E000088
:100130000000BF000000803F000000000008417880
:10014000D3BB4387D1133D190E3CC3BD4282AD2BB7
:100150003E68EC8276BED98FE1A93E4C80EFFFBEAF
:1001600001C4FF7F3F0000000000080B00020202F4
:100170000100090400000102020000052400100132
:1001800005240101010424020605240600010705D7
:10019000810310004009040100020A000000070565
:1001A0000202400000070583024000000403090426
:1001B00012010002EF0201404123378000010102D9
:1001C000030141726475696E6F204C4C43004172AB
:1001D0006475696E6F204D6963726F0000000002E4
:1001E00000090F0000030401000C000000000000E3
:1001F00000000000000000000000000000000025DA
:100200000028002B002E00310000000000240027F1
:10021000002A002D00300004040404040304050235
:100220000202020403020202020606060606060491
:10023000040202020404040802011040804010205D
:10024000408040800802040180402010020110809C
:100250001020404020004114191411241FBECFEF7C
:10026000DAE0DEBFCDBF27E0A2E6B2E001C01D921A
:10027000A833B207E1F712E0A0E0B1E0ECE9F7E360
:1002800002C005900D92A236B107D9F711E0CCE279
:10029000D1E004C02197FE010E94AF19CB32D107F3
:1002A000C9F70E94FA110C94C11B0C940000CF9264
:1002B000DF92EF92FF920F931F93CF93DF936C0126
:1002C0007A018B01C0E0D0E0CE15DF0589F0D801BE
:1002D0006D918D01D601ED91FC910190F081E02DA1
:1002E000C6010995892B11F47E0102C02196ECCF3D
:1002F000C701DF91CF911F910F91FF90EF90DF9099
:10030000CF900895CF93DF931F92CDB7DEB7698367
:10031000DC01ED91FC910280F381E02D41E050E0A1
:10032000BE016F5F7F4F09950F90DF91CF910895C8
:1003300083E08093E9008091F200882319F08AE33A
:100340008093E8000895FC018485958597FD0BC096
:100350009FB7F89482E08093E9008091F2009FBFFC
:1003600090E0019608959FB7F89482E08093E900A9
:100370008091F2009FBF90E00895CF93DF93FC013E
:100380001582DC01AB5ABD4F2C91DB01EC01CC5A3C
:10039000DD4FAD01461B570B91E08581821390E044
:1003A0003C91321711F0358303C09923E1F3158294
:1003B0003D91311102C0992329F088813813E9CF8A
:1003C0009111E7CFCA01DF91CF910895FC01808D93
:1003D0008823B9F08281893021F4809180008F7761
:1003E0000BC08A3021F4809180008F7D05C08B3056
:1003F00029F480918000877F80938000108E17867B
:10040000168608957F928F929F92AF92BF92CF925D
:10041000DF92EF92FF920F931F93CF93DF936C01C4
:100420005B017A0180910B01882309F46BC08091F4
:100430007702882309F466C080916A0280FF05C0B4
:100440008091E00082608093E000E70110E00AEF15
:1004500083E0982E90E4792E2AE3822E209709F4E7
:1004600048C08FB7F8949092E9009091E80095FF0A
:1004700006C09091F200272D291B922F01C090E019
:100480008FBF91110AC0015009F43CC061E070E0D7
:1004900080E090E00E94B411E1CF292F30E0C21734
:1004A000D3070CF49C2F8FB7F8949092E900209119
:1004B000E80025FF1CC0292F30E0C21BD30BF5013B
:1004C000915020F041914093F100FACFA20EB31E5B
:1004D000112319F08092E80009C09091E80095FD81
:1004E00006C08092E80011E0209709F010E08FBF6D
:1004F000B5CF1111B6CF5D9A84E6809369021E14C0
:100500001F0444F081E090E0F6019383828380E051
:1005100090E001C0C701DF91CF911F910F91FF9033
:10052000EF90DF90CF90BF90AF909F908F907F9093
:100530000895CF93DF931F92CDB7DEB7FC0184857A
:10054000958597FD05C02FEF3FEF358724870BC0BA
:10055000CE0101960E941311019719F4898190E050
:1005600002C08FEF9FEF0F90DF91CF9108950F930F
:100570001F93CF93DF931F92CDB7DEB78C01FC01A1
:100580008485958597FF0EC0CE0101960E941311B8
:10059000019719F4298130E002C02FEF3FEFF801F5
:1005A00035872487F801848595850F90DF91CF9159
:1005B0001F910F910895CF93DF9300D000D000D00A
:1005C000CDB7DEB78091A6069091A706009779F483
:1005D0006AE471E0CE0101960E94320DCE010196CF
:1005E0000E945210CE0101960E94130D08C0DC013A
:1005F000ED91FC910190F081E02D6BE0099526963C
:100600000FB6F894DEBF0FBECDBFDF91CF91089536
:10061000CF93DF9300D000D000D0CDB7DEB780916C
:10062000A4069091A506009779F46BE571E0CE01E0
:1006300001960E94320DCE0101960E945210CE0109
:1006400001960E94130D08C0DC01ED91FC91019010
:10065000F081E02D63E0099526960FB6F894DEBF91
:100660000FBECDBFDF91CF910895CF93DF9300D020
:1006700000D000D0CDB7DEB765E671E0CE010196BF
:100680000E94320DCE0101960E945210CE010196B9
:100690000E94130D26960FB6F894DEBF0FBECDBF95
:1006A000DF91CF910895CF93DF9300D000D000D099
:1006B000CDB7DEB7683C71F065E771E0CE01019619
:1006C0000E94320DCE0101960E945210CE01019679
:1006D0000E94130D26960FB6F894DEBF0FBECDBF55
:1006E000DF91CF910895CF93DF9300D000D000D059
:1006F000CDB7DEB7FC011282138214821582A0816D
:10070000B18117961C921E92169711821082CE010B
:1007100001960E94180DCE0101960E945210CE0142
:1007200001960E94130D26960FB6F894DEBF0FBEF9
:10073000CDBFDF91CF910895CF92DF92EF92FF92DC
:100740000F931F93CF93DF93DC0114962D913C916F
:1007500015976217730709F404C17B018C01FC0132
:10076000208D072E000C880B990BC684D78422237A
:1007700009F445C00E94B41520E030E04AE754E493
:100780000E94601720E030EC4FE754E40E94EF1520
:100790000E94D217AB016115744014F04FEF53E083
:1007A0004C155D0509F4D8C0D8011296EC91A091C2
:1007B0006202B09163029A010E94E416DC01CB014F
:1007C0002AE0B695A795979587952A95D1F7E930B0
:1007D00029F490938900809388000DC0EA3029F4B1
:1007E00090938B0080938A0006C0EB3021F49093A5
:1007F0008D0080938C00F80157874687ADC00E941A
:10080000B41520E030E04AE754E40E94601720E08D
:1008100030E04FE753E40E94EF150E94D217EB013E
:100820006F3F710519F014F0CFEFD0E0CC15DD0566
:1008300009F492C0D8011296DC908D2D0E94BE1052
:10084000209709F480C0CF3FD10509F47EC0ED2D7B
:10085000F0E0E452FE4FE4914E2F50E0FA01319760
:10086000EF30F10508F06CC0EA5AFF4F0C94AF1955
:1008700084B5806884BDC7BD6CC084B5806284BD0A
:10088000C8BD67C080918000806880938000D0934D
:100890008900C09388005DC0809180008062809351
:1008A0008000D0938B00C0938A0053C08091800059
:1008B000886080938000D0938D00C0938C0049C0E5
:1008C00080919000806880939000D0939900C093AD
:1008D00098003FC080919000806280939000D093F8
:1008E0009B00C0939A0035C08091900088608093EF
:1008F0009000D0939D00C0939C002BC08091C000BD
:1009000080688093C0008091C0008F7B8093C0007E
:10091000C093CF001EC08091C00080628093C00051
:10092000C093D00016C08091C20088608093C2003E
:100930008091C2008B7F8093C200C093D20009C017
:10094000C038D10514F460E001C061E08D2D0E9433
:100950005111F801D787C687D8011596FC92EE92FF
:100960001497DF91CF911F910F91FF90EF90DF903F
:10097000CF900895CF93DF93EC018A899B89998B5F
:10098000888B4E815F81FA0183A1E80FF11DE80F8A
:10099000F11D22853385A0E6BAEE0E94E4166C8B29
:1009A0007D8B8E8B9F8BFA0183A18F5F83A3EE815A
:1009B000FF8183A1E80FF11DE80FF11D828593856A
:1009C000893EF3E09F0714F088EE93E09B8B8A8BBF
:1009D000688979898A899B896817790719F4CE0112
:1009E0000E949C03EE81FF81428153816481758165
:1009F0008C899D89AE89BF89840F951FA61FB71F5B
:100A000086839783A087B187DF91CF910895FC01FA
:100A10008381833611F00C94511108951F93CF9365
:100A2000DF93EC01162F988581E090FF80E0682F1E
:100A300061278A810E945111812F90E09D838C83D0
:100A4000612FCE01DF91CF911F910C94070540914A
:100A50006702509168022091650230916602421748
:100A60005307B4F49091E8009570E1F39091E80099
:100A700092FD19C08093F100809167029091680205
:100A800001968F739927892B19F48EEF8093E800D4
:100A9000809167029091680201969093680280931A
:100AA000670281E0089580E00895615030F0209160
:100AB000F100FC0120830196F8CF289A84E6809308
:100AC00076020895DC01ED91FC910190F081E02D1A
:100AD00009946115710579F0FB0101900020E9F797
:100AE0003197AF01461B570BDC01ED91FC91028061
:100AF000F381E02D099480E090E008954F925F9299
:100B00006F927F92EF92FF920F931F93CF93DF9399
:100B1000CDB7DEB7A1970FB6F894DEBF0FBECDBF3D
:100B20007C01FA01CB0119A2223008F42AE08E01DF
:100B30000F5D1F4F422E512C612C712CBF01A30160
:100B400092010E948D19F901CA01015011096A3000
:100B500014F4605D01C0695CD8016C93232B242BD5
:100B6000252B61F7B801C7010E946905A1960FB650
:100B7000F894DEBF0FBECDBFDF91CF911F910F91D3
:100B8000FF90EF907F906F905F904F900895BF928D
:100B9000CF92DF92EF92FF920F931F93CF93DF9349
:100BA000EC01FC01E75BFD4F8081882309F461C003
:100BB000813031F48E01075F1F4F82E0808302C0D5
:100BC00000E010E06E0186EBC81A8DEFD80AF6013E
:100BD0008081882399F13A96B0800115110519F4A6
:100BE00036970081118178014B2DB801CE010E940A
:100BF000BD01892B31F40F5F1F4FF70180818111F7
:100C0000F2CFF7018081882389F14B2DB701CE0106
:100C10000E94BD01F701E80FF91F8081882311F0C0
:100C200010823196DE01A25BBD4FED93FC939E2DA9
:100C30008F2DFE01E45BFD4F90838183FE01E45B19
:100C4000FD4F808191810097A1F021E0F601208382
:100C5000C55BDD4F2883DF91CF911F910F91FF90EE
:100C6000EF90DF90CF90BF900C948C1590E080E0D7
:100C7000E0CFC55BDD4F188280E090E0DF91CF913F
:100C80001F910F91FF90EF90DF90CF90BF9008954C
:100C9000CF93DF9300D000D000D0CDB7DEB70E9455
:100CA000341088EC92E00E94C705019784309105CA
:100CB00078F065E771E0CE0101960E94320DCE0119
:100CC00001960E945210CE0101960E94130D10C091
:100CD000880F991FFC01E65EFE4F80819181DC0147
:100CE000ED91FC910190F081E02D6091C902099590
:100CF00026960FB6F894DEBF0FBECDBFDF91CF9121
:100D00000895FC01808181110EC081E0808387837A
:100D1000462F50E060E070E0EF5AFD4F2AE08081FE
:100D200091810C947E050895CF93DF93FC0120817F
:100D3000211108C0EC010E948106CE01DF91CF9104
:100D40000C940E1080E0DF91CF910895EF92FF9206
:100D50000F931F93CF93DF930E9434106EE688ECBD
:100D600092E00E948106CAE1D1E009911991F8014F
:100D7000E484F5848091C802882379F060911C0591
:100D80008091190590911A050E946205B701809122
:100D9000190590911A050E94DD10F801028513854E
:100DA0008091C802882379F060911C058091190513
:100DB00090911A050E946205B801809119059091E1
:100DC0001A050E94DD10F1E0C232DF0771F688ECEF
:100DD00092E0DF91CF911F910F91FF90EF900C94D3
:100DE0000E101F920F920FB60F9211242F933F9364
:100DF0004F935F936F937F938F939F93AF93BF9323
:100E0000EF93FF93E0E0F0E00995FF91EF91BF9140
:100E1000AF919F918F917F916F915F914F913F9192
:100E20002F910F900FBE0F901F9018950F931F9347
:100E3000CF93DF93DC012C91222301F18B01FC0184
:100E4000EC5AFD4FEC01CF5ADD4F608188819981CA
:100E50000E94620588819981DC01ED91FC91D801A5
:100E600014964D915C9115976D917C910280F38160
:100E7000E02DDF91CF911F910F910994DF91CF91D8
:100E80001F910F910895CF93DF9300D000D000D031
:100E9000CDB7DEB70E94341065E688EC92E00E9480
:100EA00081066EEF76E0CE0101960E94180DBE011C
:100EB0006F5F7F4F88EC92E00E941607CE0101968B
:100EC0000E94130D68EF76E0CE0101960E94180D86
:100ED000BE016F5F7F4F88EC92E00E941607CE0143
:100EE00001960E94130D62EF76E0CE0101960E94FA
:100EF000180DBE016F5F7F4F88EC92E00E941607CD
:100F0000CE0101960E94130D6CEE76E0CE010196A3
:100F10000E94180DBE016F5F7F4F88EC92E00E9427
:100F20001607CE0101960E94130D88EC92E00E94F4
:100F30000E1026960FB6F894DEBF0FBECDBFDF9120
:100F4000CF910895CF93DF93EC0188819981DC01E3
:100F5000ED91FC910190F081E02D6BEC09951A82E6
:100F60001B821C821D82E881F981178216821982F8
:100F70001882DF91CF910895FC01868197810097B7
:100F800011F00C94A2070895EF92FF920F931F9314
:100F9000CF93DF9300D000D000D0CDB7DEB77C0177
:100FA0000E94BC07E4E8F5E080E090E09C0140810D
:100FB00051810196B496452B61F444E2429FC001F1
:100FC000439F900D11248C579A4FF7019783868386
:100FD00003C08830910551F7F7010681178101158B
:100FE000110581F46DE971E0CE0101960E94320D88
:100FF000CE0101960E945210CE0101960E94130D5F
:1010000080E00DC0F801F182E0820E94EE11F8014B
:10101000628373838483958313A212A281E0269650
:101020000FB6F894DEBF0FBECDBFDF91CF911F91F9
:101030000F91FF90EF900895EF92FF920F931F93FF
:10104000CF93DF9300D000D000D0CDB7DEB77C01C6
:1010500088EC92E00E94C7058C01019780319E4088
:1010600078F067EB71E0CE0101960E94320DCE015F
:1010700001960E945210CE0101960E94130D28C0C5
:10108000C7010E94C407882319F1D7011696ED9174
:10109000FC91179728EE33E0029FC001039F900D4B
:1010A000129F900D1124092E000CAA0BBB0B42813C
:1010B000538164817581840F951FA61FB71F868396
:1010C0009783A087B18764E688EC92E00E9494063B
:1010D00026960FB6F894DEBF0FBECDBFDF91CF913D
:1010E0001F910F91FF90EF9008950F931F93CF934F
:1010F000DF9300D000D000D0CDB7DEB78C016930CF
:1011000099F150F4653029F1663059F16430B1F548
:101110000E94BC0761E020C0693C79F06B3CB9F0EB
:10112000683C61F5FC0182810E94BE10F801838158
:10113000833669F00E94BE100AC0FC01848195814B
:10114000892B79F561E0C8010E940E052AC060E094
:10115000FACF0E94BC0760E0C8010E940E0564E659
:101160001CC00E941C081DC0FC01848195811816BA
:10117000190614F069EA11C06FE90FC068EC71E05C
:10118000CE0101960E94320DCE0101960E945210AE
:10119000CE0101960E94130D04C088EC92E00E94DB
:1011A000940626960FB6F894DEBF0FBECDBFDF9132
:1011B000CF911F910F910895FF920F931F93CF939B
:1011C000DF9300D000D000D0CDB7DEB78C010E94F5
:1011D000C407F82E8823D1F1F80106811781F801A0
:1011E00012A288EC92E00E94C7059C018091130531
:1011F000F80192A18823B9F09C3018F062EF71E0F9
:1012000016C0213DF7E03F0718F060E072E00FC024
:1012100081E0890FF80182A3E90FF11DE90FF11DAB
:1012200033872287DECF911111C06DE072E0CE01CD
:1012300001960E94320DBE016F5F7F4FC8010E9470
:101240007303CE0101960E94130DF12C8F2D26966B
:101250000FB6F894DEBF0FBECDBFDF91CF911F91C7
:101260000F91FF9008954F925F926F927F928F92AD
:101270009F92AF92BF92CF92DF92EF92FF920F9325
:101280001F93CF93DF9300D000D000D0CDB7DEB74F
:101290008C01693009F46DC110F5653009F4C3C0E3
:1012A000B8F4643009F06FC10E94BC07C8010E9405
:1012B000E60161E0C8010E94070584EF91E0F801B2
:1012C000938B828B64EF71E0C8010E949C036AC11A
:1012D000663009F4B2C0683009F4C2C054C1693C38
:1012E000D1F018F4683C51F04EC16A3C09F493C047
:1012F0006B3C09F048C10E94E60190C0DC011296E7
:101300008C910E94BE10F8018381833609F486C057
:101310000E94BE1083C0DC0114962D913C9115975C
:1013200052968D919C9153972817390709F43FC124
:101330001696CD90DC9017970E94EE11F801E08888
:10134000F188D60112968D909D90AD90BC90159726
:10135000681979098A099B090E94B2154B015C0141
:10136000F80164897589868997890E94B2159B0165
:10137000AC01C501B4010E94601720E030E040E6F6
:1013800051E40E94EF1520E030E040EE50E40E946E
:10139000F3169B01AC01505864E578EF8DE290E4C0
:1013A0000E9408182B013C01B7010F2C000C880B80
:1013B000990B0E94B4154B015C01D80152966D91B6
:1013C0007C9153976E197F09072E000C880B990B9F
:1013D0000E94B4156B017C0120E030E040E85FE33F
:1013E000C301B2010E94F4169B01AC0160E070E001
:1013F00080E89FE30E9460179B01AC01C701B60122
:101400000E94EF159B01AC01C501B4010E94F416C6
:101410000E94D21721C00E94BA04C9C060E0C8016E
:101420000E940E05C4C00E94BC07C8010E94E601CC
:1014300060E0C8010E940E05B5C00E941C0861E072
:10144000C8010E94070584EF91E0D80153969C9350
:101450008E93529764EF71E0C8010E949C03A7C06D
:1014600088EC92E00E94C705813A954018F062E24C
:1014700072E010C0C8010E94DC08882309F474C01F
:10148000D8011696ED91FC91179782A180FF0FC0AD
:1014900064E372E0CE0101960E94320DCE01019606
:1014A0000E945210CE0101960E94130D5DC0F801FA
:1014B000138A128AC8010E94BA04D80118968C9126
:1014C00081FF4DC08091A806811115C080E18093F5
:1014D00081001092800081E08093640280E590EDAD
:1014E00090936302809362029093870080938600BA
:1014F00081E180938100F8018281893061F40E944A
:10150000BE108091800080688093800010928900D6
:10151000109288001BC08A3061F40E94BE10809136
:10152000800080628093800010928B0010928A006D
:101530000DC08B3059F40E94BE10809180008860ED
:101540008093800010928D0010928C008091640234
:1015500080618093810081E0D80158968C9364E685
:1015600088EC92E00E94940661E0C8010E940705A1
:101570001EC0FC01848195811816190614F069EAD1
:1015800012C06FE910C068EC71E0CE0101960E94B4
:10159000320DCE0101960E945210CE0101960E949A
:1015A000130D05C064E688EC92E00E94940626962E
:1015B0000FB6F894DEBF0FBECDBFDF91CF911F9164
:1015C0000F91FF90EF90DF90CF90BF90AF909F90E2
:1015D0008F907F906F905F904F9008950F931F931F
:1015E000CF93DF9300D000D000D0CDB7DEB78C0111
:1015F000683C59F018F46B30F9F045C0693C91F043
:101600006B3C09F040C060E013C0FC0182810E9485
:10161000BE1060E0C8010E940E051093A70600935B
:10162000A6063FC0FC0184819581892BD1F561E03C
:10163000C8010E940E0535C00E94DC088823E9F02D
:10164000F801A681B78193968C919397FD01E80FDD
:10165000F11DE80FF11D8285938512964D915D91E4
:101660006D917C911597480F591F611D711D16963C
:101670004D935D936D937C93199764E688EC92E0AB
:101680000E9494060EC068EC71E0CE0101960E94A3
:10169000320DCE0101960E945210CE0101960E9499
:1016A000130D26960FB6F894DEBF0FBECDBFDF91A7
:1016B000CF911F910F9108950F931F93CF93DF93B5
:1016C00000D000D000D0CDB7DEB78C01693CD1F09E
:1016D000A0F4633009F445C0683C09F069C0DC013E
:1016E00012968C910E94BE1060E0C8010E940E0507
:1016F0001093A5060093A40669C06A3C79F06B3C80
:1017000059F156C0DC011696ED91FC91179783A113
:1017100080FD22C00E94341061E01FC0FC01A68140
:10172000B78193968C919397FD01E80FF11DE80F17
:10173000F11D8285938512964D915D916D917C91FD
:101740001597480F591F611D711D16964D935D9396
:101750006D937C9319973AC060E0C8010E940E0512
:1017600035C00E94DC088823E9F0F801A681B78122
:1017700093968C919397FD01E80FF11DE80FF11DF1
:101780008285938512964D915D916D917C9115970F
:10179000480F591F611D711D16964D935D936D93F2
:1017A0007C93199764E688EC92E00E9494060EC040
:1017B00068EC71E0CE0101960E94320DCE010196D7
:1017C0000E945210CE0101960E94130D26960FB66C
:1017D000F894DEBF0FBECDBFDF91CF911F910F9167
:1017E00008950E94AC1BEF92FF920F931F93CF932B
:1017F000DF93EC017B018A0188819981009729F0B0
:101800002A813B8124173507F8F4B8016F5F7F4FB9
:101810000E94E21A009759F0998388831B830A83F8
:101820002C813D81232B81F4FC0110820DC0888125
:101830009981009711F00E944A1A198218821D821C
:101840001C821B821A8207C01D830C83B70188810A
:1018500099810E94BA1BCE01DF91CF911F910F9108
:10186000FF90EF900895CF92DF92EF92FF920F9347
:101870001F93CF93DF931F92CDB7DEB7182F062F9C
:10188000E42E862F880F8E5F99830E94270583E0C0
:101890000E942705F12EC12E9981D92E8C2D8F19EA
:1018A000801798F4F601E7FE02C0849101C08081A0
:1018B0000E942705182F80E00E9427058123FFEF53
:1018C000CF1ADF0A8111EACF01C081E00F90DF91CA
:1018D000CF911F910F91FF90EF90DF90CF900895DF
:1018E000DF92EF92FF920F931F93CF93DF93D82E47
:1018F0008A017B01E40EF51EEB01CE15DF0571F0C8
:10190000D7FE03C0FE01849101C088810E94270593
:1019100021968111F2CF8FEF9FEF01C0C801DF91B7
:10192000CF911F910F91FF90EF90DF9008950F934B
:101930001F93CF93DF931F92CDB7DEB782E08983E9
:1019400042E450E06AE671E080E80E94700C0E9478
:101950003D11DC0112960D911C9113970115110593
:1019600069F0D801ED91FC910280F381E02DBE0178
:101970006F5F7F4FC801099597FF07C089810F905E
:10198000DF91CF911F910F910895F8010085118586
:10199000E5CF1F920F920FB60F9211242F933F9312
:1019A0008F939F93AF93BF9380916E0290916F023C
:1019B000A0917002B091710230916D0223E0230F6B
:1019C0002D3720F40196A11DB11D05C026E8230F77
:1019D0000296A11DB11D20936D0280936E0290931B
:1019E0006F02A0937002B093710280917202909185
:1019F0007302A0917402B09175020196A11DB11DF0
:101A00008093720290937302A0937402B093750254
:101A1000BF91AF919F918F913F912F910F900FBEEA
:101A20000F901F901895FC01808191810C944A1AA7
:101A3000FB01DC0111961C921E9213961C921E92C1
:101A4000129715961C921E9214978617970749F0C5
:101A5000608171816115710521F0448155810C947B
:101A6000F30B0895FC0111821082138212821582F9
:101A700014826115710551F0FB0101900020E9F716
:101A80003197AF01461B570B0C94F30B08951F922F
:101A90000F920FB60F9211248F939F938091E100C4
:101AA0009091E100937F9093E10083FF0FC010922B
:101AB000E90091E09093EB001092EC0092E3909398
:101AC000ED001092770298E09093F00082FF20C022
:101AD00093E09093E9009091F200992319F09AE332
:101AE0009093E80090916902992339F090916902EE
:101AF000915090936902992389F1909176029923EC
:101B000039F090917602915090937602992341F1A9
:101B100084FF10C08091E2008E7E81608093E2009D
:101B20008091E1008F7E8093E10080916A028E7E39
:101B3000806111C080FF16C08091E2008E7E8061BE
:101B40008093E2008091E1008E7E8093E10080919D
:101B50006A028E7E816080936A0204C05D98CDCF58
:101B60002898D6CF9F918F910F900FBE0F901F9006
:101B700018951F920F920FB60F921124CF92DF92F9
:101B8000EF92FF920F931F932F933F934F935F9387
:101B90006F937F938F939F93AF93BF93EF93FF9335
:101BA000CF93DF93CDB7DEB76C97DEBFCDBF10927A
:101BB000E9008091E80083FFEDC168E0CE01459621
:101BC0000E94550582EF8093E8008D8987FF05C04C
:101BD0009091E80090FFFCCF03C09EEF9093E80047
:101BE000982F907609F0C6C09E892F89188D911183
:101BF0000CC0803829F480916C028093F10002C0FF
:101C00001092F1001092F10048C1422F50E0512B88
:101C1000913051F4811141C14130510509F03DC16C
:101C200080916C028D7F0BC0933061F4811135C1BE
:101C30004130510509F031C180916C02826080937E
:101C40006C022BC1953041F48091E80080FFFCCFFD
:101C500020682093E30021C1963009F05FC0EB8C2F
:101C6000FC8C1092E9001092680210926702123008
:101C700091F510926602109265020E94970C99E00D
:101C8000BE016F5F7F4FDB01E92F1D92EA95E9F7F7
:101C900099831A8391E09E8390EA98879AEF9987B7
:101CA0002091670230916802275F3F4F3C832B836E
:101CB0008D831092E9001092680210926702F092F0
:101CC0006602E092650249E050E080E00E94700CFC
:101CD0000E94970CE2C0F0926602E09265020E94B8
:101CE0003D11DC011296ED90FC901397E114F10484
:101CF00009F4C0C0D701ED91FC910480F581E02D7D
:101D0000BE016B5E7F4FC7010995009719F00CF07B
:101D1000C4C0C7C0F701E084F184E8CF973009F46C
:101D2000C0C0983021F481E08093F100B6C09930B2
:101D300009F0B3C0837009F0B4C0E3E1F1E081E0E1
:101D400021E036E39081992361F08093E9002093AC
:101D5000EB0091919093EC003093ED008F5F873012
:101D600089F78EE78093EA001092EA008F898093CA
:101D7000770293C08B8D9C8D1092E90010926802BF
:101D8000109267029093660280936502898D81119B
:101D900056C08E899D89913A59F4813209F081C0EB
:101DA00047E050E064E071E080E00E94700C75C094
:101DB000913209F076C0833289F4888D90E0982FB3
:101DC00088272F89822BA0E0B0E0809300019093B8
:101DD0000101A0930201B09303015FC0803269F456
:101DE0008091E80082FFFCCF67E084E091E00E94F0
:101DF00055058BEF8093E80006C0823209F04DC094
:101E00008F8980930B0180916B02882319F0EEEF8C
:101E1000FAE002C0E0E0F8E0809104019091050151
:101E2000A0910601B0910701803B9440A105B10546
:101E300009F07BC080910B0180FF93C076C00E94A7
:101E40003D11DC0112960D911C911397011511059E
:101E500041F1D801ED91FC910190F081E02DBE019E
:101E60006B5E7F4FC8010995811117C0F80100858D
:101E70001185ECCF113009F44EC0133091F48F89E5
:101E8000882309F445C0823081F440E86DE08EEC8F
:101E900091E00E94330C882321F08EEF8093E800BC
:101EA00079C081E28093EB0075C0813029F440E86D
:101EB0006BE082EC91E0EDCF833099F70E943D1109
:101EC000DC011296ED90FC9013978E010F5F1F4F6F
:101ED0006801E114F10479F0D701ED91FC910680DD
:101EE000F781E02DB801C7010995080F111DF70111
:101EF000E084F184EECFD8011C92F601019000201D
:101F0000E9F73197BF016C197D0940E0C601C1CFE7
:101F10006CEA71E002C060EB71E06115710509F2D5
:101F2000FB01449150E080E840CF0FB6F894A895AB
:101F300080916000886180936000109260000FBE05
:101F4000A895EE3F2AE0F20739F08091FE0A9091C1
:101F5000FF0A91838083A1CF1092FF0A1092FE0A9C
:101F60009CCFEE3F8AE0F80731F080819181909319
:101F7000FF0A8093FE0A87E797E7918380839BE0BF
:101F800088E10FB6F894A895809360000FBE9093F7
:101F9000600083CF6C960FB6F894DEBF0FBECDBF46
:101FA000DF91CF91FF91EF91BF91AF919F918F9171
:101FB0007F916F915F914F913F912F911F910F9161
:101FC000FF90EF90DF90CF900F900FBE0F901F907B
:101FD00018953FB7F8948091720290917302A09186
:101FE0007402B091750226B5A89B05C02F3F19F069
:101FF0000196A11DB11D3FBFBA2FA92F982F882789
:10200000820F911DA11DB11DBC01CD0142E0660FE3
:10201000771F881F991F4A95D1F708950F931F9333
:10202000CF93DF93EC0188818823B1F08E010F5AA2
:102030001D4FFE01ED5AFD4F6081F80180819181B5
:102040000E9462058885882339F06FE572E0F80107
:10205000808191810E9469051F82188280E0DF9152
:10206000CF911F910F910895CF93DF93C091A60652
:10207000D091A706209799F0CE010E94C40788232B
:1020800071F0EE81FF8182819381A481B5818A56AE
:102090009F4FAF4FBF4F86839783A087B187DF9154
:1020A000CF910895EF92FF920F931F93CF93DF93F9
:1020B000CDB7DEB72C970FB6F894DEBF0FBECDBFFD
:1020C0007C010091A4061091A50601151105F9F0F7
:1020D000D80118968D919C91199783709927892B17
:1020E000B1F4C8010E94C407882389F0D80116966C
:1020F000ED91FC9117974281538164817581445D14
:102100005E4F6F4F7F4F46835783608771870E9472
:102110003410B701CE0107960E94180D8091C802B5
:1021200081111BC067EC88EC92E00E948106BE0121
:10213000695F7F4FCE0101960E94180DBE016F5F4F
:102140007F4F88EC92E00E941607CE0101960E9414
:10215000130D88EC92E00E940E10CE0107960E94AB
:10216000130D2C960FB6F894DEBF0FBECDBFDF91D6
:10217000CF911F910F91FF90EF90089590E0FC0197
:10218000EA5CFD4F2491FC01E95EFD4F84918823B8
:1021900099F090E0880F991FFC01E75FFD4FA59132
:1021A000B491FC01E550FE4F859194918FB7F8945E
:1021B000EC91E22BEC938FBF0895CF92DF92EF92D8
:1021C000FF920F931F93CF93DF936B01770FEE086E
:1021D000FF08F7FE1BC0EC016DE20E9462058C0156
:1021E00044275527BA014C195D096E097F092AE079
:1021F000CE010E947E05800F911FDF91CF911F912C
:102200000F91FF90EF90DF90CF9008952AE0B701F3
:10221000A601DF91CF911F910F91FF90EF90DF907A
:10222000CF900C947E05FC0180917702811103C050
:102230008FEF9FEF08959FB7F89482E08093E900B5
:102240002091F20030E01216130614F421E030E081
:102250002115310559F0289A84E680937602809101
:10226000F10080838091F200882319F09FBFC9019B
:1022700008958BE68093E800F9CF809108078111DB
:102280000DC082E08093040784E0809305071092DC
:1022900007071092060781E08093080784E097E023
:1022A0000895362F90E0FC01E452FE4F4491FC016A
:1022B000EA5CFD4F2491FC01E95EFD4F8491882387
:1022C00009F451C04423E1F150E0FA013197EF30B5
:1022D000F105B0F5EB59FF4F0C94AF1990918000C8
:1022E0009F7707C0909180009F7D03C090918000F0
:1022F000977F9093800024C094B59F7702C094B5D7
:102300009F7D94BD1DC0909190009F7707C09091D4
:1023100090009F7D03C090919000977F90939000D4
:102320000FC09091C0009F7703C09091C0009F7D27
:102330009093C00005C09091C200977F9093C20017
:10234000E82FF0E0EE0FFF1FE550FE4FA591B4918E
:102350008FB7F894EC91311103C020952E2301C062
:102360002E2B2C938FBF08958F929F92AF92BF9286
:10237000CF92DF92EF92FF926B017C010E94E90FF6
:102380004B015C01C114D104E104F104F1F00E949D
:10239000E90FDC01CB0188199909AA09BB09883E1C
:1023A0009340A105B10570F321E0C21AD108E108FC
:1023B000F10888EE880E83E0981EA11CB11CC114A0
:1023C000D104E104F10419F7DDCFFF90EF90DF9025
:1023D000CF90BF90AF909F908F9008952FB7F894B3
:1023E00060916E0270916F02809170029091710203
:1023F0002FBF0895789484B5826084BD84B58160D0
:1024000084BD85B5826085BD85B5816085BD8091BF
:102410006E00816080936E00109281008091810037
:10242000826080938100809181008160809381002F
:102430008091800081608093800080919100826013
:1024400080939100809191008160809391008091B0
:1024500090008160809390008091C100846080939F
:10246000C1008091C10082608093C1008091C10051
:1024700081608093C1008091C30081608093C3001C
:102480008091C00082608093C0008091C200816012
:102490008093C20080917A00846080937A0080915A
:1024A0007A00826080937A0080917A0081608093C4
:1024B0007A0080917A00806880937A001092770287
:1024C00010926C0210926A028091D7008160809312
:1024D000D70080EA8093D80089B5806189BD89B52D
:1024E000826089BD09B400FEFDCF61E070E080E04C
:1024F00090E00E94B4118091D8008F7C806180931D
:10250000D8008091E000807F8093E0008091E1001E
:102510008E7E8093E1008DE08093E200559A209AB0
:102520005D982898EEEFFFE7859194918B3F9C4D45
:1025300019F481E080936B028FEF9FEF90938502F7
:1025400080938402C0910B016AE070E080E090E02B
:102550000E94B411CC23B1F381E08093D00285E3D3
:1025600093E090931F0580931E0583E497E090937A
:1025700023058093220588E496E0909329058093B3
:10258000280590932B0580932A0590932D05809321
:102590002C059093330580933205909331058093F9
:1025A000300588E093E090932705809326058BED16
:1025B00092E0909337058093360586EA96E09093F3
:1025C000350580933405CAE1D1E089919991DC0108
:1025D000ED91FC910190F081E02D68EC0995B1E05E
:1025E000C232DB0791F768EE73E080E090E00E9472
:1025F000B41100E010E0DD24D3948091CF0281116A
:102600000EC08091190590911A05DC01ED91FC91A5
:102610000480F581E02D0995892B09F04DC09AE1E0
:10262000E92E91E0F92ED701ED91FD917D01C68152
:10263000D781209779F10E94EE114E805F806884E7
:102640007984461657066806790650F08881998184
:10265000DC01ED91FC910190F081E02D69EC15C059
:102660008BA18F5F8BA39AA1891788F40E94EE112A
:102670006A837B838C839D8388819981DC01ED91C2
:10268000FC910190F081E02D6AEC099503C0CE0128
:102690000E94A207B2E2EB16B1E0FB0621F664E16C
:1026A00070E080E090E00E94B4110115110509F47A
:1026B000A4CF0E940000A1CF8091190590911A0526
:1026C000DC01ED91FC910480F581E02D09958115E7
:1026D00092400CF0AAC08091190590911A05DC0176
:1026E000ED91FC910480F581E02D09957C01C0916C
:1026F0001905D0911A05A12CB12CAE14BF0421F1FB
:102700000E94EE11688779878A879B87E881F98123
:102710000680F781E02DCE01099597FF18C00E9431
:10272000EE11488459846A847B84DC01CB018419CE
:102730009509A609B7094C805D806E807F8084155D
:102740009505A605B70510F3C0E0D0E03DC0F50142
:10275000EF5EFC4F8083BFEFAB1ABB0ACECFFE010A
:10276000EF5EFC4F90811092110580911D0521E0D4
:102770003091CE02381320E0981751F19093CE0299
:1027800030911B058091CA02E82FF0E0E853FD4F1D
:10279000931323C0211121C01186882321F0D092E8
:1027A00011051092CE021092CA02109215051092D5
:1027B00014051092170510921605D09212058091FB
:1027C0001105813099F02196CE15DF0541F615CF20
:1027D0002223A1F21092CE02D3CF91878F5F8093F4
:1027E000CA029091CC02891750F3DDCF88EC92E0B9
:1027F0000E94C7058093C902823378F420911305A3
:10280000222359F0FC01FF27EE0FFF1FE05EFA4F75
:102810000190F081E02D309731F4E0911E05F091A8
:102820001F05309781F20995CECFE12C82E0F82E7A
:102830005ECF8CEE96E00E94130D82EF96E00E9430
:10284000130D80E197E00E94130D86E197E00E944E
:10285000130D8CE197E00E94130D82E297E00E9435
:10286000130D88E297E00E94130D8EE297E00E941C
:10287000130D88EF96E00E94130D8EEF96E00C94F6
:10288000130D10927B0210927A0288EE93E0A0E082
:10289000B0E080937C0290937D02A0937E02B0937F
:1028A0007F0286E291E090937902809378028FEF25
:1028B0009FEF90938502809384026AE472E08EEF2A
:1028C00096E00E94320D65E572E088EF96E00E9486
:1028D000320D6AE472E08EE297E00E94320D65E507
:1028E00072E088E297E00E94320D6AE472E082E2D0
:1028F00097E00E94320D65E572E08CE197E00E945E
:10290000320D6AE472E086E197E00E94320D65E5DF
:1029100072E080E197E00E94320D69E572E082EF9B
:1029200096E00E94320D65E572E08CEE96E00E9422
:10293000320D1092DA061092D90682E090E0909360
:10294000E0068093DF069093DE068093DD062AE0A2
:102950002093D5069093DC068093DB0623E020933A
:10296000D60628E431E03093D4062093D3061092A3
:10297000E2061092E1061092EB061092CC0610923D
:10298000CB061092D2061092D1061092D006109269
:10299000CF061092C7061092CE061092CD0623E6FF
:1029A0002093C80642E451E05093C6064093C50602
:1029B0003091C1061092BE061092BD064AE050E06A
:1029C0005093C4064093C30648E050E05093C206BB
:1029D0004093C1063093B9069093C0068093BF061A
:1029E0001092BA068CE391E09093B8068093B706F4
:1029F0001092B0061092AF068BE090E09093B6066E
:102A00008093B5069093B4068093B3068DE08093CF
:102A1000AB0681E090E09093B2068093B1062093DC
:102A2000AC0686E391E09093AA068093A906E8ECB1
:102A3000F2E081EE93E0DF019C011D9221503040D5
:102A4000E1F788E792E090931A05809319058CE2EC
:102A500080931C058BE380931B058FE280931D05FB
:102A600080E48093CB028FE38093CC0281E080935B
:102A70001205E0E2F5E01192119235E0E438F30737
:102A8000D1F7109286051092870510928805109252
:102A900089051092AA051092AB051092AC05109210
:102AA000AD051092CE051092CF051092D005109270
:102AB000D1051092F2051092F3051092F4051092D0
:102AC000F50510921606109217061092180610922D
:102AD000190610923A0610923B0610923C0610928C
:102AE0003D0610925E0610925F06109260061092EC
:102AF000610610928206109283061092840610924C
:102B000085061092A5061092A4061092A7061092B0
:102B1000A6061092A8060895FC0188279927E89434
:102B200021912032E9F3293010F02E30C8F32B32F6
:102B300041F02D3239F4689404C00E94AA15820F26
:102B4000911D219120532A30C0F31EF49095819558
:102B50009F4F08957AE0979F902D879F802D910D2C
:102B600011240895E89409C097FB3EF49095809550
:102B7000709561957F4F8F4F9F4F9923A9F0F92F43
:102B800096E9BB279395F695879577956795B795C1
:102B9000F111F8CFFAF4BB0F11F460FF1BC06F5FA7
:102BA0007F4F8F4F9F4F16C0882311F096E911C0B9
:102BB000772321F09EE8872F762F05C0662371F0DA
:102BC00096E8862F70E060E02AF09A95660F771FEE
:102BD000881FDAF7880F9695879597F908950E94D0
:102BE00002160C9473160E94651638F00E946C163B
:102BF00020F0952311F00C945C160C9462161124AD
:102C00000C94A7160E94841670F3959FC1F3950F3C
:102C100050E0551F629FF001729FBB27F00DB11D60
:102C2000639FAA27F00DB11DAA1F649F6627B00DF0
:102C3000A11D661F829F2227B00DA11D621F739FD9
:102C4000B00DA11D621F839FA00D611D221F749FE7
:102C50003327A00D611D231F849F600D211D822F2E
:102C6000762F6A2F11249F5750409AF0F1F0882355
:102C70004AF0EE0FFF1FBB1F661F771F881F915082
:102C80005040A9F79E3F510580F00C945C160C94BF
:102C9000A7165F3FE4F3983ED4F386957795679542
:102CA000B795F795E7959F5FC1F7FE2B880F911DAC
:102CB0009695879597F9089597F99F6780E870E052
:102CC00060E008959FEF80EC089500240A941616A2
:102CD000170618060906089500240A94121613060A
:102CE000140605060895092E0394000C11F4882398
:102CF00052F0BB0F40F4BF2B11F460FF04C06F5FB4
:102D00007F4F8F4F9F4F089557FD9058440F551F89
:102D100059F05F3F71F04795880F97FB991F61F05D
:102D20009F3F79F087950895121613061406551FD4
:102D3000F2CF4695F1DF08C0161617061806991F40
:102D4000F1CF86957105610508940895E894BB2735
:102D500066277727CB0197F908952F923F924F92DC
:102D60005F926F927F928F929F92AF92BF92CF921B
:102D7000DF92EF92FF920F931F93CF93DF93CDB724
:102D8000DEB7CA1BDB0B0FB6F894DEBF0FBECDBF9C
:102D900009942A88398848885F846E847D848C846D
:102DA0009B84AA84B984C884DF80EE80FD800C8176
:102DB0001B81AA81B981CE0FD11D0FB6F894DEBF59
:102DC0000FBECDBFED010895A29FB001B39FC0011A
:102DD000A39F700D811D1124911DB29F700D811D47
:102DE0001124911D08955058BB27AA270E940B1744
:102DF0000C9473160E94651638F00E946C1620F031
:102E000039F49F3F19F426F40C9462160EF4E09501
:102E1000E7FB0C945C16E92F0E94841658F3BA174E
:102E2000620773078407950720F079F4A6F50C94E0
:102E3000A6160EF4E0950B2EBA2FA02D0B01B901AA
:102E400090010C01CA01A0011124FF27591B99F020
:102E5000593F50F4503E68F11A16F040A22F232F2C
:102E6000342F4427585FF3CF469537952795A7957C
:102E7000F0405395C9F77EF41F16BA0B620B730B23
:102E8000840BBAF09150A1F0FF0FBB1F661F771F94
:102E9000881FC2F70EC0BA0F621F731F841F48F449
:102EA000879577956795B795F7959E3F08F0B0CFD2
:102EB0009395880F08F09927EE0F979587950895B9
:102EC0000E9474170C9473160E946C1658F00E949E
:102ED000651640F029F45F3F29F00C945C165111FF
:102EE0000C94A7160C9462160E94841668F399231A
:102EF000B1F3552391F3951B550BBB27AA276217F6
:102F00007307840738F09F5F5F4F220F331F441F02
:102F1000AA1FA9F335D00E2E3AF0E0E832D0915036
:102F20005040E695001CCAF72BD0FE2F29D0660F23
:102F3000771F881FBB1F261737074807AB07B0E866
:102F400009F0BB0B802DBF01FF2793585F4F3AF06C
:102F50009E3F510578F00C945C160C94A7165F3FC9
:102F6000E4F3983ED4F3869577956795B795F795F2
:102F70009F5FC9F7880F911D9695879597F90895DA
:102F8000E1E0660F771F881FBB1F62177307840776
:102F9000BA0720F0621B730B840BBA0BEE1F88F785
:102FA000E09508950E94D9176894B1110C94A71662
:102FB00008950E948C1688F09F5798F0B92F992792
:102FC000B751B0F0E1F0660F771F881F991F1AF014
:102FD000BA95C9F714C0B13091F00E94A616B1E0BD
:102FE00008950C94A616672F782F8827B85F39F0BC
:102FF000B93FCCF3869577956795B395D9F73EF4AD
:1030000090958095709561957F4F8F4F9F4F089554
:10301000FA01EE0FFF1F309621053105A1F1611570
:10302000710561F48038BFE39B0749F168949038DB
:10303000810561F08038BFEF9B0741F099234AF585
:10304000FF3FE1053105210519F1E8940894E79562
:10305000D901AA2329F4AB2FBE2FF85FD0F310C0FB
:10306000FF5F70F4A695E0F7F73950F019F0FF3ADA
:1030700038F49F779F930DD00F9007FC90580895D8
:1030800046F00C94621660E070E080E89FE30895DB
:103090004FE79F775F934F933F932F930E940319BE
:1030A0002F913F914F915F910E94EF150C94601802
:1030B00029F416F00C945C160C94A6160C94621667
:1030C0000E948C16A8F39638A0F707F80F92E894A0
:1030D0002BE33AEA48EB5FE70E9405160F920F9246
:1030E0000F924DB75EB70F920E944B19E8EEF0E0D9
:1030F0000E9492184F915F91EF91FF91E595EE1F1D
:10310000FF1F49F0FE57E0684427EE0F441FFA9571
:10311000E1F74195550B0E94C5180F9007FE0C94DE
:10312000B9180895DF93CF931F930F93FF92EF92F7
:10313000DF927B018C01689406C0DA2EEF010E94B9
:103140000216FE01E894A59125913591459155917E
:10315000A6F3EF010E940B17FE019701A801DA9474
:1031600069F7DF90EF90FF900F911F91CF91DF9162
:1031700008959B01AC0160E070E080E89FE30C944F
:1031800060170C945C160C947F190E948C16D8F36F
:103190009923C9F3940F511DA3F39150504094F01B
:1031A00059F0882332F0660F771F881F91505040E6
:1031B000C1F79E3F51052CF7880F911D9695879575
:1031C00097F908955F3FACF0983E9CF0BB27869539
:1031D00077956795B79508F4B1609395C1F7BB0FE4
:1031E00058F711F460FFE8CF6F5F7F4F8F4F9F4F0D
:1031F000E3CF0C94A71616F00C947F190C9462166A
:1032000068940C945C160E948C16A8F39923C1F361
:10321000AEF3DF93CF931F930F93FF92C92FDD2758
:1032200088232AF02197660F771F881FDAF720E09E
:1032300030E040E85FEB9FE3883920F0803E38F0D3
:1032400021968F770E94F416E0E1F1E004C00E941D
:10325000F416EDE3F1E00E9492188B01BE01EC013F
:10326000FB2E6F5771097595771F880B990B0E947C
:10327000B41528E132E741E35FE30E940216AF2D67
:103280009801AE01FF900F911F91CF91DF910E94A5
:103290000B170C947316FA01DC01AA0FBB1F9B01DC
:1032A000AC01BF5728F4222733274427507820C089
:1032B000B75190F4AB2F0024469537952795011C04
:1032C000A395D2F3002071F0220F331F441FB39552
:1032D000DAF30ED00C94F31661307105A0E88A077A
:1032E000B94630F49B01AC01662777278827907890
:1032F000309621F0208331834283538308959F3F8A
:1033000031F0915020F4879577956795B795880FA0
:10331000911D9695879597F90895A1E21A2EAA1BFB
:10332000BB1BFD010DC0AA1FBB1FEE1FFF1FA21775
:10333000B307E407F50720F0A21BB30BE40BF50B72
:10334000661F771F881F991F1A9469F760957095FB
:10335000809590959B01AC01BD01CF010895EE0FC2
:10336000FF1F0590F491E02D0994CF93DF938230F5
:10337000910510F482E090E0E0913607F091370774
:1033800020E030E0C0E0D0E0309711F14081518181
:1033900048175907C0F04817590761F48281938193
:1033A000209719F09B838A832BC0909337078093D3
:1033B000360726C02115310519F04217530718F4B6
:1033C0009A01BE01DF01EF010280F381E02DDCCF25
:1033D0002115310509F1281B390B2430310590F4F2
:1033E00012968D919C9113976115710521F0FB0147
:1033F0009383828304C09093370780933607FD013F
:10340000329644C0FD01E20FF31F81939193225045
:1034100031092D933C933AC0209134073091350700
:10342000232B41F420910E0130910F013093350789
:103430002093340720910C0130910D0121153105A5
:1034400041F42DB73EB74091100150911101241B5A
:10345000350BE0913407F0913507E217F307A0F43C
:103460002E1B3F0B2817390778F0AC014E5F5F4FDA
:103470002417350748F04E0F5F1F509335074093D0
:1034800034078193919302C0E0E0F0E0CF01DF9137
:10349000CF9108950F931F93CF93DF93009709F473
:1034A0008CC0FC0132971382128200913607109172
:1034B00037070115110581F420813181820F931F97
:1034C00020913407309135072817390779F5F093A3
:1034D0003507E093340771C0D80140E050E0AE17E3
:1034E000BF0750F412962D913C911397AD01211511
:1034F000310509F1D901F3CF9D01DA01338322832C
:1035000060817181860F971F8217930769F4EC0120
:1035100028813981260F371F2E5F3F4F318320834B
:103520008A819B8193838283452B29F4F09337070B
:10353000E093360742C01396FC93EE931297ED0189
:10354000499159919E01240F351FE217F30771F439
:1035500080819181840F951F029611969C938E9382
:103560008281938113969C938E931297E0E0F0E012
:10357000D80112968D919C911397009719F0F8013C
:103580008C01F6CF8D919C9198012E5F3F4F820F59
:10359000931F20913407309135072817390769F4B4
:1035A000309729F4109237071092360702C0138221
:1035B00012821093350700933407DF91CF911F914A
:1035C0000F910895A0E0B0E0E8EEFAE10C94B11696
:1035D000EC01009721F4CB010E94B519B8C0FC01A1
:1035E000E60FF71F9C0122503109E217F30708F498
:1035F000ACC0D9010D911C91119706171707B0F0B7
:103600000530110508F49FC0C80104978617970775
:1036100008F499C002501109061B170B019311936E
:103620006D937C93CF010E944A1A8DC05B01A01A52
:10363000B10A4C01800E911EA0913607B091370758
:1036400040E050E0E12CF12C109709F44AC0A81595
:10365000B905D1F56D907C901197630182E0C80E99
:10366000D11CCA14DB0480F1A3014A195B096A0169
:1036700082E0C80ED11C1296BC9012971396AC91A2
:10368000B5E0CB16D10440F0B282A38351834083CE
:10369000D9016D937C930AC00E5F1F4FC301800F49
:1036A000911FF90191838083EB2DFA2FE114F1042E
:1036B00031F0D7011396FC93EE93129744C0F09328
:1036C0003707E09336073FC08D919C9111974817BB
:1036D000590708F4AC017D0112960D90BC91A02D04
:1036E000B3CF809134079091350788159905E1F49F
:1036F00046175707C8F480910C0190910D0100976F
:1037000041F48DB79EB74091100150911101841B77
:10371000950BE817F907C8F4F0933507E0933407E1
:10372000F901718360830FC0CB010E94B5197C0140
:10373000009759F0A801BE010E94B11BCE010E9462
:103740004A1AC70104C0CE0102C080E090E0CDB7A4
:10375000DEB7EEE00C94CD1681E090E0F8940C9486
:10376000C11BFB01DC0102C001900D924150504091
:10377000D8F70895FB01DC0101900D920020E1F7DC
:10378000089511E0CCE2D1E004C0FE010E94AF191F
:0C3790002196CD32D107C9F7F894FFCF85
:10379C00FFFFFFFF00E10000000000000000380701
:1037AC00800000C1808100000004D306C506B70666
:1037BC00A9060000000082010202A3019902B702CF
:1037CC00980100000000EE0A000000005C0B0000F5
:1037DC00000053030000000033096E6F2073746106
:1037EC0074757320646576696365006E6F2062750D
:1037FC007A7A657200756E6B6E6F776E20636F6D83
:10380C006D616E6400756E737570706F7274656443
:10381C00206C6F676963616C2D6E6F20666F722010
:10382C007468697320636F6D6D616E6400746F20D2
:10383C006D616E7920636F6E63757272656E742044
:10384C00646F696E6773006572726F7220696E20A7
:10385C007365636F6E647300636F6D6D616E64206E
:10386C006E6F7420737570706F7274656420666F00
:10387C00722074686973206C6F676963616C2D6E5C
:10388C006F00746F206D616E7920737465707300B6
:10389C006572726F7220696E20617267006E6F7450
:1038AC0020656E6F75676820617267756D656E74E3
:1038BC0073006572726F7220696E2073746172741A
:1038CC002D61740077726F6E67206E6F206F6620AB
:1038DC00617267756D656E747300536D6F6F74688C
:1038EC006965417100302E31006C69676874000D98
:0238FC000A00C0
:00000001FF
